:100000000C9434000C943E000C943E000C943E0082
:100010000C943E000C943E000C943E000C943E0068
:100020000C943E000C943E000C943E000C943E0058
:100030000C943E000C943E000C943E000C943E0048
:100040000C943E000C943E000C943E000C943E0038
:100050000C943E000C943E000C943E000C943E0028
:100060000C943E000C943E0011241FBECFEFD8E04C
:10007000DEBFCDBF0E9440000C9457000C940000DE
:100080001AB88CEF8BB980E284B999B189B183FB3E
:10009000882780F992FF81E08295880F807E85B95C
:1000A00083EC99E00197F1F700C00000EECFF894DF
:0200B000FFCF80
:00000001FF
